{
  "_format": "hh-sol-artifact-1",
  "contractName": "StakingToken",
  "sourceName": "contracts/StakingToken.sol",
  "abi": [
    {
      "inputs": [
        {
          "internalType": "string",
          "name": "name",
          "type": "string"
        },
        {
          "internalType": "string",
          "name": "symbol",
          "type": "string"
        }
      ],
      "stateMutability": "nonpayable",
      "type": "constructor"
    },
    {
      "anonymous": false,
      "inputs": [
        {
          "indexed": true,
          "internalType": "address",
          "name": "owner",
          "type": "address"
        },
        {
          "indexed": true,
          "internalType": "address",
          "name": "spender",
          "type": "address"
        },
        {
          "indexed": false,
          "internalType": "uint256",
          "name": "value",
          "type": "uint256"
        }
      ],
      "name": "Approval",
      "type": "event"
    },
    {
      "anonymous": false,
      "inputs": [
        {
          "indexed": true,
          "internalType": "address",
          "name": "from",
          "type": "address"
        },
        {
          "indexed": true,
          "internalType": "address",
          "name": "to",
          "type": "address"
        },
        {
          "indexed": false,
          "internalType": "uint256",
          "name": "value",
          "type": "uint256"
        }
      ],
      "name": "Transfer",
      "type": "event"
    },
    {
      "inputs": [],
      "name": "CONVERSION_RATE",
      "outputs": [
        {
          "internalType": "uint256",
          "name": "",
          "type": "uint256"
        }
      ],
      "stateMutability": "view",
      "type": "function"
    },
    {
      "inputs": [],
      "name": "REWARD_BASE",
      "outputs": [
        {
          "internalType": "uint256",
          "name": "",
          "type": "uint256"
        }
      ],
      "stateMutability": "view",
      "type": "function"
    },
    {
      "inputs": [],
      "name": "REWARD_DURATION",
      "outputs": [
        {
          "internalType": "uint256",
          "name": "",
          "type": "uint256"
        }
      ],
      "stateMutability": "view",
      "type": "function"
    },
    {
      "inputs": [
        {
          "internalType": "address",
          "name": "owner",
          "type": "address"
        },
        {
          "internalType": "address",
          "name": "spender",
          "type": "address"
        }
      ],
      "name": "allowance",
      "outputs": [
        {
          "internalType": "uint256",
          "name": "",
          "type": "uint256"
        }
      ],
      "stateMutability": "view",
      "type": "function"
    },
    {
      "inputs": [
        {
          "internalType": "address",
          "name": "spender",
          "type": "address"
        },
        {
          "internalType": "uint256",
          "name": "amount",
          "type": "uint256"
        }
      ],
      "name": "approve",
      "outputs": [
        {
          "internalType": "bool",
          "name": "",
          "type": "bool"
        }
      ],
      "stateMutability": "nonpayable",
      "type": "function"
    },
    {
      "inputs": [
        {
          "internalType": "address",
          "name": "account",
          "type": "address"
        }
      ],
      "name": "balanceOf",
      "outputs": [
        {
          "internalType": "uint256",
          "name": "",
          "type": "uint256"
        }
      ],
      "stateMutability": "view",
      "type": "function"
    },
    {
      "inputs": [],
      "name": "claimRewards",
      "outputs": [],
      "stateMutability": "nonpayable",
      "type": "function"
    },
    {
      "inputs": [],
      "name": "convertEthToStakingToken",
      "outputs": [],
      "stateMutability": "payable",
      "type": "function"
    },
    {
      "inputs": [],
      "name": "decimals",
      "outputs": [
        {
          "internalType": "uint8",
          "name": "",
          "type": "uint8"
        }
      ],
      "stateMutability": "view",
      "type": "function"
    },
    {
      "inputs": [
        {
          "internalType": "address",
          "name": "spender",
          "type": "address"
        },
        {
          "internalType": "uint256",
          "name": "subtractedValue",
          "type": "uint256"
        }
      ],
      "name": "decreaseAllowance",
      "outputs": [
        {
          "internalType": "bool",
          "name": "",
          "type": "bool"
        }
      ],
      "stateMutability": "nonpayable",
      "type": "function"
    },
    {
      "inputs": [],
      "name": "distributeRewards",
      "outputs": [],
      "stateMutability": "nonpayable",
      "type": "function"
    },
    {
      "inputs": [],
      "name": "getRewardPool",
      "outputs": [
        {
          "internalType": "uint256",
          "name": "",
          "type": "uint256"
        }
      ],
      "stateMutability": "view",
      "type": "function"
    },
    {
      "inputs": [
        {
          "internalType": "address",
          "name": "account",
          "type": "address"
        }
      ],
      "name": "getRewards",
      "outputs": [
        {
          "internalType": "uint256",
          "name": "",
          "type": "uint256"
        }
      ],
      "stateMutability": "view",
      "type": "function"
    },
    {
      "inputs": [
        {
          "internalType": "address",
          "name": "account",
          "type": "address"
        }
      ],
      "name": "getStakedBalance",
      "outputs": [
        {
          "internalType": "uint256",
          "name": "",
          "type": "uint256"
        }
      ],
      "stateMutability": "view",
      "type": "function"
    },
    {
      "inputs": [
        {
          "internalType": "address",
          "name": "account",
          "type": "address"
        }
      ],
      "name": "getStakedTimestamp",
      "outputs": [
        {
          "internalType": "uint256",
          "name": "",
          "type": "uint256"
        }
      ],
      "stateMutability": "view",
      "type": "function"
    },
    {
      "inputs": [
        {
          "internalType": "address",
          "name": "spender",
          "type": "address"
        },
        {
          "internalType": "uint256",
          "name": "addedValue",
          "type": "uint256"
        }
      ],
      "name": "increaseAllowance",
      "outputs": [
        {
          "internalType": "bool",
          "name": "",
          "type": "bool"
        }
      ],
      "stateMutability": "nonpayable",
      "type": "function"
    },
    {
      "inputs": [],
      "name": "name",
      "outputs": [
        {
          "internalType": "string",
          "name": "",
          "type": "string"
        }
      ],
      "stateMutability": "view",
      "type": "function"
    },
    {
      "inputs": [
        {
          "internalType": "uint256",
          "name": "amount",
          "type": "uint256"
        }
      ],
      "name": "stake",
      "outputs": [],
      "stateMutability": "nonpayable",
      "type": "function"
    },
    {
      "inputs": [],
      "name": "symbol",
      "outputs": [
        {
          "internalType": "string",
          "name": "",
          "type": "string"
        }
      ],
      "stateMutability": "view",
      "type": "function"
    },
    {
      "inputs": [],
      "name": "totalSupply",
      "outputs": [
        {
          "internalType": "uint256",
          "name": "",
          "type": "uint256"
        }
      ],
      "stateMutability": "view",
      "type": "function"
    },
    {
      "inputs": [
        {
          "internalType": "address",
          "name": "to",
          "type": "address"
        },
        {
          "internalType": "uint256",
          "name": "amount",
          "type": "uint256"
        }
      ],
      "name": "transfer",
      "outputs": [
        {
          "internalType": "bool",
          "name": "",
          "type": "bool"
        }
      ],
      "stateMutability": "nonpayable",
      "type": "function"
    },
    {
      "inputs": [
        {
          "internalType": "address",
          "name": "from",
          "type": "address"
        },
        {
          "internalType": "address",
          "name": "to",
          "type": "address"
        },
        {
          "internalType": "uint256",
          "name": "amount",
          "type": "uint256"
        }
      ],
      "name": "transferFrom",
      "outputs": [
        {
          "internalType": "bool",
          "name": "",
          "type": "bool"
        }
      ],
      "stateMutability": "nonpayable",
      "type": "function"
    },
    {
      "inputs": [
        {
          "internalType": "uint256",
          "name": "amount",
          "type": "uint256"
        }
      ],
      "name": "unstake",
      "outputs": [],
      "stateMutability": "nonpayable",
      "type": "function"
    },
    {
      "inputs": [
        {
          "internalType": "address",
          "name": "account",
          "type": "address"
        }
      ],
      "name": "validStaker",
      "outputs": [
        {
          "internalType": "bool",
          "name": "",
          "type": "bool"
        }
      ],
      "stateMutability": "view",
      "type": "function"
    }
  ],
  "bytecode": "0x60806040523480156200001157600080fd5b5060405162002bb638038062002bb68339818101604052810190620000379190620002c2565b818181600390805190602001906200005192919062000075565b5080600490805190602001906200006a92919062000075565b5050505050620003ac565b828054620000839062000376565b90600052602060002090601f016020900481019282620000a75760008555620000f3565b82601f10620000c257805160ff1916838001178555620000f3565b82800160010185558215620000f3579182015b82811115620000f2578251825591602001919060010190620000d5565b5b50905062000102919062000106565b5090565b5b808211156200012157600081600090555060010162000107565b5090565b6000604051905090565b600080fd5b600080fd5b600080fd5b600080fd5b6000601f19601f8301169050919050565b7f4e487b7100000000000000000000000000000000000000000000000000000000600052604160045260246000fd5b6200018e8262000143565b810181811067ffffffffffffffff82111715620001b057620001af62000154565b5b80604052505050565b6000620001c562000125565b9050620001d3828262000183565b919050565b600067ffffffffffffffff821115620001f657620001f562000154565b5b620002018262000143565b9050602081019050919050565b60005b838110156200022e57808201518184015260208101905062000211565b838111156200023e576000848401525b50505050565b60006200025b6200025584620001d8565b620001b9565b9050828152602081018484840111156200027a57620002796200013e565b5b620002878482856200020e565b509392505050565b600082601f830112620002a757620002a662000139565b5b8151620002b984826020860162000244565b91505092915050565b60008060408385031215620002dc57620002db6200012f565b5b600083015167ffffffffffffffff811115620002fd57620002fc62000134565b5b6200030b858286016200028f565b925050602083015167ffffffffffffffff8111156200032f576200032e62000134565b5b6200033d858286016200028f565b9150509250929050565b7f4e487b7100000000000000000000000000000000000000000000000000000000600052602260045260246000fd5b600060028204905060018216806200038f57607f821691505b60208210811415620003a657620003a562000347565b5b50919050565b6127fa80620003bc6000396000f3fe60806040526004361061014b5760003560e01c806339509351116100b657806379ee54f71161006f57806379ee54f71461048957806395d89b41146104c6578063a457c2d7146104f1578063a694fc3a1461052e578063a9059cbb14610557578063dd62ed3e146105945761014b565b806339509351146103865780633a02a42d146103c35780635ade228a146104005780636f4a2cd01461042b57806370a082311461044257806374ea263f1461047f5761014b565b806323b872dd1161010857806323b872dd146102765780632c8bff31146102b35780632d8a67c2146102de5780632e17de781461031b578063313ce56714610344578063372500ab1461036f5761014b565b806306fdde0314610150578063095ea7b31461017b5780630b44f33b146101b857806318160ddd146101f55780631b8b13a7146102205780631e009f311461024b575b600080fd5b34801561015c57600080fd5b506101656105d1565b6040516101729190611bb2565b60405180910390f35b34801561018757600080fd5b506101a2600480360381019061019d9190611c6d565b610663565b6040516101af9190611cc8565b60405180910390f35b3480156101c457600080fd5b506101df60048036038101906101da9190611ce3565b610686565b6040516101ec9190611cc8565b60405180910390f35b34801561020157600080fd5b5061020a6106a3565b6040516102179190611d1f565b60405180910390f35b34801561022c57600080fd5b506102356106ad565b6040516102429190611d1f565b60405180910390f35b34801561025757600080fd5b506102606106ed565b60405161026d9190611d1f565b60405180910390f35b34801561028257600080fd5b5061029d60048036038101906102989190611d3a565b6106f9565b6040516102aa9190611cc8565b60405180910390f35b3480156102bf57600080fd5b506102c8610728565b6040516102d59190611d1f565b60405180910390f35b3480156102ea57600080fd5b5061030560048036038101906103009190611ce3565b61072d565b6040516103129190611d1f565b60405180910390f35b34801561032757600080fd5b50610342600480360381019061033d9190611d8d565b610779565b005b34801561035057600080fd5b50610359610911565b6040516103669190611dd6565b60405180910390f35b34801561037b57600080fd5b5061038461091a565b005b34801561039257600080fd5b506103ad60048036038101906103a89190611c6d565b610984565b6040516103ba9190611cc8565b60405180910390f35b3480156103cf57600080fd5b506103ea60048036038101906103e59190611ce3565b6109bb565b6040516103f79190611d1f565b60405180910390f35b34801561040c57600080fd5b50610415610a07565b6040516104229190611d1f565b60405180910390f35b34801561043757600080fd5b50610440610a0e565b005b34801561044e57600080fd5b5061046960048036038101906104649190611ce3565b610afc565b6040516104769190611d1f565b60405180910390f35b610487610b44565b005b34801561049557600080fd5b506104b060048036038101906104ab9190611ce3565b610bab565b6040516104bd9190611d1f565b60405180910390f35b3480156104d257600080fd5b506104db610c7b565b6040516104e89190611bb2565b60405180910390f35b3480156104fd57600080fd5b5061051860048036038101906105139190611c6d565b610d0d565b6040516105259190611cc8565b60405180910390f35b34801561053a57600080fd5b5061055560048036038101906105509190611d8d565b610d84565b005b34801561056357600080fd5b5061057e60048036038101906105799190611c6d565b610f3d565b60405161058b9190611cc8565b60405180910390f35b3480156105a057600080fd5b506105bb60048036038101906105b69190611df1565b610f60565b6040516105c89190611d1f565b60405180910390f35b6060600380546105e090611e60565b80601f016020809104026020016040519081016040528092919081815260200182805461060c90611e60565b80156106595780601f1061062e57610100808354040283529160200191610659565b820191906000526020600020905b81548152906001019060200180831161063c57829003601f168201915b5050505050905090565b60008061066e610fe7565b905061067b818585610fef565b600191505092915050565b600061069c8260066111ba90919063ffffffff16565b9050919050565b6000600254905090565b60008062015180426106bf9190611ef0565b670de0b6b3a76400006106d29190611f21565b90506106dc6106a3565b816106e79190611f7b565b91505090565b670de0b6b3a764000081565b600080610704610fe7565b90506107118582856111ea565b61071c858585611276565b60019150509392505050565b606481565b6000600560008373ffffffffffffffffffffffffffffffffffffffff1673ffffffffffffffffffffffffffffffffffffffff168152602001908152602001600020600101549050919050565b600081116107bc576040517f08c379a00000000000000000000000000000000000000000000000000000000081526004016107b390611ffb565b60405180910390fd5b80600560003373ffffffffffffffffffffffffffffffffffffffff1673ffffffffffffffffffffffffffffffffffffffff168152602001908152602001600020600001541015610841576040517f08c379a000000000000000000000000000000000000000000000000000000000815260040161083890612067565b60405180910390fd5b61084a336114ee565b80600560003373ffffffffffffffffffffffffffffffffffffffff1673ffffffffffffffffffffffffffffffffffffffff168152602001908152602001600020600001600082825461089c9190611f7b565b925050819055506000600560003373ffffffffffffffffffffffffffffffffffffffff1673ffffffffffffffffffffffffffffffffffffffff1681526020019081526020016000206000015414156109045761090233600661157890919063ffffffff16565b505b61090e33826115a8565b50565b60006012905090565b610923336114ee565b600061092e33610bab565b905061093a33826115a8565b42600560003373ffffffffffffffffffffffffffffffffffffffff1673ffffffffffffffffffffffffffffffffffffffff1681526020019081526020016000206002018190555050565b60008061098f610fe7565b90506109b08185856109a18589610f60565b6109ab9190612087565b610fef565b600191505092915050565b6000600560008373ffffffffffffffffffffffffffffffffffffffff1673ffffffffffffffffffffffffffffffffffffffff168152602001908152602001600020600001549050919050565b6201518081565b6000610a1a60066116ff565b11610a5a576040517f08c379a0000000000000000000000000000000000000000000000000000000008152600401610a5190612129565b60405180910390fd5b60005b610a6760066116ff565b811015610af9576000610a8482600661171490919063ffffffff16565b90506000610a9182610bab565b9050610a9d82826115a8565b42600560008473ffffffffffffffffffffffffffffffffffffffff1673ffffffffffffffffffffffffffffffffffffffff1681526020019081526020016000206002018190555050508080610af190612149565b915050610a5d565b50565b60008060008373ffffffffffffffffffffffffffffffffffffffff1673ffffffffffffffffffffffffffffffffffffffff168152602001908152602001600020549050919050565b600034905060008111610b8c576040517f08c379a0000000000000000000000000000000000000000000000000000000008152600401610b8390611ffb565b60405180910390fd5b6000606482610b9b9190611f21565b9050610ba733826115a8565b5050565b600080600560008473ffffffffffffffffffffffffffffffffffffffff1673ffffffffffffffffffffffffffffffffffffffff1681526020019081526020016000206001015442610bfc9190611f7b565b905060006201518082610c0f9190611ef0565b670de0b6b3a7640000610c229190611f21565b9050600560008573ffffffffffffffffffffffffffffffffffffffff1673ffffffffffffffffffffffffffffffffffffffff1681526020019081526020016000206000015481610c729190611f21565b92505050919050565b606060048054610c8a90611e60565b80601f0160208091040260200160405190810160405280929190818152602001828054610cb690611e60565b8015610d035780601f10610cd857610100808354040283529160200191610d03565b820191906000526020600020905b815481529060010190602001808311610ce657829003601f168201915b5050505050905090565b600080610d18610fe7565b90506000610d268286610f60565b905083811015610d6b576040517f08c379a0000000000000000000000000000000000000000000000000000000008152600401610d6290612204565b60405180910390fd5b610d788286868403610fef565b60019250505092915050565b60008111610dc7576040517f08c379a0000000000000000000000000000000000000000000000000000000008152600401610dbe90611ffb565b60405180910390fd5b80610dd133610afc565b1015610e12576040517f08c379a0000000000000000000000000000000000000000000000000000000008152600401610e0990612270565b60405180910390fd5b610e263360066111ba90919063ffffffff16565b610e4057610e3e33600661172e90919063ffffffff16565b505b610e49336114ee565b80600560003373ffffffffffffffffffffffffffffffffffffffff1673ffffffffffffffffffffffffffffffffffffffff1681526020019081526020016000206000016000828254610e9b9190612087565b9250508190555042600560003373ffffffffffffffffffffffffffffffffffffffff1673ffffffffffffffffffffffffffffffffffffffff1681526020019081526020016000206001018190555042600560003373ffffffffffffffffffffffffffffffffffffffff1673ffffffffffffffffffffffffffffffffffffffff16815260200190815260200160002060020181905550610f3a338261175e565b50565b600080610f48610fe7565b9050610f55818585611276565b600191505092915050565b6000600160008473ffffffffffffffffffffffffffffffffffffffff1673ffffffffffffffffffffffffffffffffffffffff16815260200190815260200160002060008373ffffffffffffffffffffffffffffffffffffffff1673ffffffffffffffffffffffffffffffffffffffff16815260200190815260200160002054905092915050565b600033905090565b600073ffffffffffffffffffffffffffffffffffffffff168373ffffffffffffffffffffffffffffffffffffffff16141561105f576040517f08c379a000000000000000000000000000000000000000000000000000000000815260040161105690612302565b60405180910390fd5b600073ffffffffffffffffffffffffffffffffffffffff168273ffffffffffffffffffffffffffffffffffffffff1614156110cf576040517f08c379a00000000000000000000000000000000000000000000000000000000081526004016110c690612394565b60405180910390fd5b80600160008573ffffffffffffffffffffffffffffffffffffffff1673ffffffffffffffffffffffffffffffffffffffff16815260200190815260200160002060008473ffffffffffffffffffffffffffffffffffffffff1673ffffffffffffffffffffffffffffffffffffffff168152602001908152602001600020819055508173ffffffffffffffffffffffffffffffffffffffff168373ffffffffffffffffffffffffffffffffffffffff167f8c5be1e5ebec7d5bd14f71427d1e84f3dd0314c0f7b2291e5b200ac8c7c3b925836040516111ad9190611d1f565b60405180910390a3505050565b60006111e2836000018373ffffffffffffffffffffffffffffffffffffffff1660001b61192c565b905092915050565b60006111f68484610f60565b90507fffffffffffffffffffffffffffffffffffffffffffffffffffffffffffffffff81146112705781811015611262576040517f08c379a000000000000000000000000000000000000000000000000000000000815260040161125990612400565b60405180910390fd5b61126f8484848403610fef565b5b50505050565b600073ffffffffffffffffffffffffffffffffffffffff168373ffffffffffffffffffffffffffffffffffffffff1614156112e6576040517f08c379a00000000000000000000000000000000000000000000000000000000081526004016112dd90612492565b60405180910390fd5b600073ffffffffffffffffffffffffffffffffffffffff168273ffffffffffffffffffffffffffffffffffffffff161415611356576040517f08c379a000000000000000000000000000000000000000000000000000000000815260040161134d90612524565b60405180910390fd5b61136183838361194f565b60008060008573ffffffffffffffffffffffffffffffffffffffff1673ffffffffffffffffffffffffffffffffffffffff168152602001908152602001600020549050818110156113e7576040517f08c379a00000000000000000000000000000000000000000000000000000000081526004016113de906125b6565b60405180910390fd5b8181036000808673ffffffffffffffffffffffffffffffffffffffff1673ffffffffffffffffffffffffffffffffffffffff16815260200190815260200160002081905550816000808573ffffffffffffffffffffffffffffffffffffffff1673ffffffffffffffffffffffffffffffffffffffff168152602001908152602001600020600082825401925050819055508273ffffffffffffffffffffffffffffffffffffffff168473ffffffffffffffffffffffffffffffffffffffff167fddf252ad1be2c89b69c2b068fc378daa952ba7f163c4a11628f55a4df523b3ef846040516114d59190611d1f565b60405180910390a36114e8848484611954565b50505050565b6115028160066111ba90919063ffffffff16565b61150b57611575565b600061151682610bab565b9050600081111561152c5761152b82826115a8565b5b42600560008473ffffffffffffffffffffffffffffffffffffffff1673ffffffffffffffffffffffffffffffffffffffff16815260200190815260200160002060020181905550505b50565b60006115a0836000018373ffffffffffffffffffffffffffffffffffffffff1660001b611959565b905092915050565b600073ffffffffffffffffffffffffffffffffffffffff168273ffffffffffffffffffffffffffffffffffffffff161415611618576040517f08c379a000000000000000000000000000000000000000000000000000000000815260040161160f90612622565b60405180910390fd5b6116246000838361194f565b80600260008282546116369190612087565b92505081905550806000808473ffffffffffffffffffffffffffffffffffffffff1673ffffffffffffffffffffffffffffffffffffffff168152602001908152602001600020600082825401925050819055508173ffffffffffffffffffffffffffffffffffffffff16600073ffffffffffffffffffffffffffffffffffffffff167fddf252ad1be2c89b69c2b068fc378daa952ba7f163c4a11628f55a4df523b3ef836040516116e79190611d1f565b60405180910390a36116fb60008383611954565b5050565b600061170d82600001611a6d565b9050919050565b60006117238360000183611a7e565b60001c905092915050565b6000611756836000018373ffffffffffffffffffffffffffffffffffffffff1660001b611aa9565b905092915050565b600073ffffffffffffffffffffffffffffffffffffffff168273ffffffffffffffffffffffffffffffffffffffff1614156117ce576040517f08c379a00000000000000000000000000000000000000000000000000000000081526004016117c5906126b4565b60405180910390fd5b6117da8260008361194f565b60008060008473ffffffffffffffffffffffffffffffffffffffff1673ffffffffffffffffffffffffffffffffffffffff16815260200190815260200160002054905081811015611860576040517f08c379a000000000000000000000000000000000000000000000000000000000815260040161185790612746565b60405180910390fd5b8181036000808573ffffffffffffffffffffffffffffffffffffffff1673ffffffffffffffffffffffffffffffffffffffff1681526020019081526020016000208190555081600260008282540392505081905550600073ffffffffffffffffffffffffffffffffffffffff168373ffffffffffffffffffffffffffffffffffffffff167fddf252ad1be2c89b69c2b068fc378daa952ba7f163c4a11628f55a4df523b3ef846040516119139190611d1f565b60405180910390a361192783600084611954565b505050565b600080836001016000848152602001908152602001600020541415905092915050565b505050565b505050565b60008083600101600084815260200190815260200160002054905060008114611a6157600060018261198b9190611f7b565b90506000600186600001805490506119a39190611f7b565b9050818114611a125760008660000182815481106119c4576119c3612766565b5b90600052602060002001549050808760000184815481106119e8576119e7612766565b5b90600052602060002001819055508387600101600083815260200190815260200160002081905550505b85600001805480611a2657611a25612795565b5b600190038181906000526020600020016000905590558560010160008681526020019081526020016000206000905560019350505050611a67565b60009150505b92915050565b600081600001805490509050919050565b6000826000018281548110611a9657611a95612766565b5b9060005260206000200154905092915050565b6000611ab5838361192c565b611b0e578260000182908060018154018082558091505060019003906000526020600020016000909190919091505582600001805490508360010160008481526020019081526020016000208190555060019050611b13565b600090505b92915050565b600081519050919050565b600082825260208201905092915050565b60005b83811015611b53578082015181840152602081019050611b38565b83811115611b62576000848401525b50505050565b6000601f19601f8301169050919050565b6000611b8482611b19565b611b8e8185611b24565b9350611b9e818560208601611b35565b611ba781611b68565b840191505092915050565b60006020820190508181036000830152611bcc8184611b79565b905092915050565b600080fd5b600073ffffffffffffffffffffffffffffffffffffffff82169050919050565b6000611c0482611bd9565b9050919050565b611c1481611bf9565b8114611c1f57600080fd5b50565b600081359050611c3181611c0b565b92915050565b6000819050919050565b611c4a81611c37565b8114611c5557600080fd5b50565b600081359050611c6781611c41565b92915050565b60008060408385031215611c8457611c83611bd4565b5b6000611c9285828601611c22565b9250506020611ca385828601611c58565b9150509250929050565b60008115159050919050565b611cc281611cad565b82525050565b6000602082019050611cdd6000830184611cb9565b92915050565b600060208284031215611cf957611cf8611bd4565b5b6000611d0784828501611c22565b91505092915050565b611d1981611c37565b82525050565b6000602082019050611d346000830184611d10565b92915050565b600080600060608486031215611d5357611d52611bd4565b5b6000611d6186828701611c22565b9350506020611d7286828701611c22565b9250506040611d8386828701611c58565b9150509250925092565b600060208284031215611da357611da2611bd4565b5b6000611db184828501611c58565b91505092915050565b600060ff82169050919050565b611dd081611dba565b82525050565b6000602082019050611deb6000830184611dc7565b92915050565b60008060408385031215611e0857611e07611bd4565b5b6000611e1685828601611c22565b9250506020611e2785828601611c22565b9150509250929050565b7f4e487b7100000000000000000000000000000000000000000000000000000000600052602260045260246000fd5b60006002820490506001821680611e7857607f821691505b60208210811415611e8c57611e8b611e31565b5b50919050565b7f4e487b7100000000000000000000000000000000000000000000000000000000600052601260045260246000fd5b7f4e487b7100000000000000000000000000000000000000000000000000000000600052601160045260246000fd5b6000611efb82611c37565b9150611f0683611c37565b925082611f1657611f15611e92565b5b828204905092915050565b6000611f2c82611c37565b9150611f3783611c37565b9250817fffffffffffffffffffffffffffffffffffffffffffffffffffffffffffffffff0483118215151615611f7057611f6f611ec1565b5b828202905092915050565b6000611f8682611c37565b9150611f9183611c37565b925082821015611fa457611fa3611ec1565b5b828203905092915050565b7f416d6f756e74206d7573742062652067726561746572207468616e207a65726f600082015250565b6000611fe5602083611b24565b9150611ff082611faf565b602082019050919050565b6000602082019050818103600083015261201481611fd8565b9050919050565b7f496e73756666696369656e74207374616b656420616d6f756e74000000000000600082015250565b6000612051601a83611b24565b915061205c8261201b565b602082019050919050565b6000602082019050818103600083015261208081612044565b9050919050565b600061209282611c37565b915061209d83611c37565b9250827fffffffffffffffffffffffffffffffffffffffffffffffffffffffffffffffff038211156120d2576120d1611ec1565b5b828201905092915050565b7f4e6f207374616b65727300000000000000000000000000000000000000000000600082015250565b6000612113600a83611b24565b915061211e826120dd565b602082019050919050565b6000602082019050818103600083015261214281612106565b9050919050565b600061215482611c37565b91507fffffffffffffffffffffffffffffffffffffffffffffffffffffffffffffffff82141561218757612186611ec1565b5b600182019050919050565b7f45524332303a2064656372656173656420616c6c6f77616e63652062656c6f7760008201527f207a65726f000000000000000000000000000000000000000000000000000000602082015250565b60006121ee602583611b24565b91506121f982612192565b604082019050919050565b6000602082019050818103600083015261221d816121e1565b9050919050565b7f496e73756666696369656e742062616c616e636520666f72207374616b696e67600082015250565b600061225a602083611b24565b915061226582612224565b602082019050919050565b600060208201905081810360008301526122898161224d565b9050919050565b7f45524332303a20617070726f76652066726f6d20746865207a65726f2061646460008201527f7265737300000000000000000000000000000000000000000000000000000000602082015250565b60006122ec602483611b24565b91506122f782612290565b604082019050919050565b6000602082019050818103600083015261231b816122df565b9050919050565b7f45524332303a20617070726f766520746f20746865207a65726f20616464726560008201527f7373000000000000000000000000000000000000000000000000000000000000602082015250565b600061237e602283611b24565b915061238982612322565b604082019050919050565b600060208201905081810360008301526123ad81612371565b9050919050565b7f45524332303a20696e73756666696369656e7420616c6c6f77616e6365000000600082015250565b60006123ea601d83611b24565b91506123f5826123b4565b602082019050919050565b60006020820190508181036000830152612419816123dd565b9050919050565b7f45524332303a207472616e736665722066726f6d20746865207a65726f20616460008201527f6472657373000000000000000000000000000000000000000000000000000000602082015250565b600061247c602583611b24565b915061248782612420565b604082019050919050565b600060208201905081810360008301526124ab8161246f565b9050919050565b7f45524332303a207472616e7366657220746f20746865207a65726f206164647260008201527f6573730000000000000000000000000000000000000000000000000000000000602082015250565b600061250e602383611b24565b9150612519826124b2565b604082019050919050565b6000602082019050818103600083015261253d81612501565b9050919050565b7f45524332303a207472616e7366657220616d6f756e742065786365656473206260008201527f616c616e63650000000000000000000000000000000000000000000000000000602082015250565b60006125a0602683611b24565b91506125ab82612544565b604082019050919050565b600060208201905081810360008301526125cf81612593565b9050919050565b7f45524332303a206d696e7420746f20746865207a65726f206164647265737300600082015250565b600061260c601f83611b24565b9150612617826125d6565b602082019050919050565b6000602082019050818103600083015261263b816125ff565b9050919050565b7f45524332303a206275726e2066726f6d20746865207a65726f2061646472657360008201527f7300000000000000000000000000000000000000000000000000000000000000602082015250565b600061269e602183611b24565b91506126a982612642565b604082019050919050565b600060208201905081810360008301526126cd81612691565b9050919050565b7f45524332303a206275726e20616d6f756e7420657863656564732062616c616e60008201527f6365000000000000000000000000000000000000000000000000000000000000602082015250565b6000612730602283611b24565b915061273b826126d4565b604082019050919050565b6000602082019050818103600083015261275f81612723565b9050919050565b7f4e487b7100000000000000000000000000000000000000000000000000000000600052603260045260246000fd5b7f4e487b7100000000000000000000000000000000000000000000000000000000600052603160045260246000fdfea2646970667358221220c874919e01bf465bb4047c9613262d5b541c52bdfbee066aaf7a1b1258bc753564736f6c63430008080033",
  "linkReferences": {},
  "deployedLinkReferences": {}
}